{
  "_format": "hh-sol-artifact-1",
  "contractName": "DigitalBond",
  "sourceName": "contracts/DigitalBond.sol",
  "abi": [
    {
      "inputs": [
        {
          "internalType": "address",
          "name": "registrar_",
          "type": "address"
        },
        {
          "internalType": "address",
          "name": "issuer_",
          "type": "address"
        },
        {
          "internalType": "string",
          "name": "isin_",
          "type": "string"
        },
        {
          "internalType": "string",
          "name": "paperContractUrl_",
          "type": "string"
        },
        {
          "internalType": "bytes32",
          "name": "paperContractHash_",
          "type": "bytes32"
        },
        {
          "internalType": "uint256",
          "name": "totalSupply_",
          "type": "uint256"
        },
        {
          "internalType": "uint256",
          "name": "issuanceDate_",
          "type": "uint256"
        },
        {
          "internalType": "uint256",
          "name": "maturityDate_",
          "type": "uint256"
        },
        {
          "internalType": "uint8",
          "name": "decimals_",
          "type": "uint8"
        }
      ],
      "stateMutability": "nonpayable",
      "type": "constructor"
    },
    {
      "anonymous": false,
      "inputs": [
        {
          "indexed": false,
          "internalType": "address",
          "name": "_address",
          "type": "address"
        },
        {
          "indexed": false,
          "internalType": "bool",
          "name": "allowlisted",
          "type": "bool"
        }
      ],
      "name": "AllowlistEvent",
      "type": "event"
    },
    {
      "anonymous": false,
      "inputs": [
        {
          "indexed": true,
          "internalType": "address",
          "name": "owner",
          "type": "address"
        },
        {
          "indexed": true,
          "internalType": "address",
          "name": "spender",
          "type": "address"
        },
        {
          "indexed": false,
          "internalType": "uint256",
          "name": "value",
          "type": "uint256"
        }
      ],
      "name": "Approval",
      "type": "event"
    },
    {
      "anonymous": false,
      "inputs": [
        {
          "indexed": false,
          "internalType": "address",
          "name": "from",
          "type": "address"
        },
        {
          "indexed": false,
          "internalType": "uint256",
          "name": "amount",
          "type": "uint256"
        }
      ],
      "name": "BurnEvent",
      "type": "event"
    },
    {
      "anonymous": false,
      "inputs": [
        {
          "indexed": false,
          "internalType": "bytes32",
          "name": "contractHash",
          "type": "bytes32"
        }
      ],
      "name": "ContractUpdateEvent",
      "type": "event"
    },
    {
      "anonymous": false,
      "inputs": [
        {
          "indexed": false,
          "internalType": "address",
          "name": "to",
          "type": "address"
        },
        {
          "indexed": false,
          "internalType": "uint256",
          "name": "amount",
          "type": "uint256"
        }
      ],
      "name": "IssuanceEvent",
      "type": "event"
    },
    {
      "anonymous": false,
      "inputs": [
        {
          "indexed": false,
          "internalType": "address",
          "name": "registrar",
          "type": "address"
        }
      ],
      "name": "IssuerUpdateEvent",
      "type": "event"
    },
    {
      "anonymous": false,
      "inputs": [
        {
          "indexed": false,
          "internalType": "address",
          "name": "to",
          "type": "address"
        },
        {
          "indexed": false,
          "internalType": "uint256",
          "name": "amount",
          "type": "uint256"
        }
      ],
      "name": "MintEvent",
      "type": "event"
    },
    {
      "anonymous": false,
      "inputs": [
        {
          "indexed": false,
          "internalType": "bool",
          "name": "paused",
          "type": "bool"
        }
      ],
      "name": "PauseEvent",
      "type": "event"
    },
    {
      "anonymous": false,
      "inputs": [
        {
          "indexed": false,
          "internalType": "address",
          "name": "registrar",
          "type": "address"
        }
      ],
      "name": "RegistrarUpdateEvent",
      "type": "event"
    },
    {
      "anonymous": false,
      "inputs": [
        {
          "indexed": true,
          "internalType": "address",
          "name": "from",
          "type": "address"
        },
        {
          "indexed": true,
          "internalType": "address",
          "name": "to",
          "type": "address"
        },
        {
          "indexed": false,
          "internalType": "uint256",
          "name": "value",
          "type": "uint256"
        }
      ],
      "name": "Transfer",
      "type": "event"
    },
    {
      "anonymous": false,
      "inputs": [
        {
          "indexed": false,
          "internalType": "address",
          "name": "from",
          "type": "address"
        },
        {
          "indexed": false,
          "internalType": "address",
          "name": "to",
          "type": "address"
        },
        {
          "indexed": false,
          "internalType": "uint256",
          "name": "amount",
          "type": "uint256"
        }
      ],
      "name": "TransferEvent",
      "type": "event"
    },
    {
      "inputs": [
        {
          "internalType": "address",
          "name": "",
          "type": "address"
        }
      ],
      "name": "_holders",
      "outputs": [
        {
          "internalType": "uint256",
          "name": "",
          "type": "uint256"
        }
      ],
      "stateMutability": "view",
      "type": "function"
    },
    {
      "inputs": [
        {
          "internalType": "address",
          "name": "_address",
          "type": "address"
        },
        {
          "internalType": "bool",
          "name": "allow",
          "type": "bool"
        }
      ],
      "name": "allowAddress",
      "outputs": [
        {
          "internalType": "bool",
          "name": "",
          "type": "bool"
        }
      ],
      "stateMutability": "nonpayable",
      "type": "function"
    },
    {
      "inputs": [
        {
          "internalType": "address",
          "name": "",
          "type": "address"
        }
      ],
      "name": "allowList",
      "outputs": [
        {
          "internalType": "bool",
          "name": "",
          "type": "bool"
        }
      ],
      "stateMutability": "view",
      "type": "function"
    },
    {
      "inputs": [
        {
          "internalType": "address",
          "name": "owner",
          "type": "address"
        },
        {
          "internalType": "address",
          "name": "spender",
          "type": "address"
        }
      ],
      "name": "allowance",
      "outputs": [
        {
          "internalType": "uint256",
          "name": "",
          "type": "uint256"
        }
      ],
      "stateMutability": "view",
      "type": "function"
    },
    {
      "inputs": [
        {
          "internalType": "address",
          "name": "_address",
          "type": "address"
        }
      ],
      "name": "allowedAddress",
      "outputs": [
        {
          "internalType": "bool",
          "name": "",
          "type": "bool"
        }
      ],
      "stateMutability": "view",
      "type": "function"
    },
    {
      "inputs": [
        {
          "internalType": "address",
          "name": "spender",
          "type": "address"
        },
        {
          "internalType": "uint256",
          "name": "amount",
          "type": "uint256"
        }
      ],
      "name": "approve",
      "outputs": [
        {
          "internalType": "bool",
          "name": "",
          "type": "bool"
        }
      ],
      "stateMutability": "nonpayable",
      "type": "function"
    },
    {
      "inputs": [
        {
          "internalType": "address",
          "name": "account",
          "type": "address"
        }
      ],
      "name": "balanceOf",
      "outputs": [
        {
          "internalType": "uint256",
          "name": "",
          "type": "uint256"
        }
      ],
      "stateMutability": "view",
      "type": "function"
    },
    {
      "inputs": [],
      "name": "currentSupply",
      "outputs": [
        {
          "internalType": "uint256",
          "name": "",
          "type": "uint256"
        }
      ],
      "stateMutability": "view",
      "type": "function"
    },
    {
      "inputs": [],
      "name": "decimals",
      "outputs": [
        {
          "internalType": "uint8",
          "name": "",
          "type": "uint8"
        }
      ],
      "stateMutability": "view",
      "type": "function"
    },
    {
      "inputs": [
        {
          "internalType": "address",
          "name": "spender",
          "type": "address"
        },
        {
          "internalType": "uint256",
          "name": "subtractedValue",
          "type": "uint256"
        }
      ],
      "name": "decreaseAllowance",
      "outputs": [
        {
          "internalType": "bool",
          "name": "",
          "type": "bool"
        }
      ],
      "stateMutability": "nonpayable",
      "type": "function"
    },
    {
      "inputs": [
        {
          "internalType": "address",
          "name": "",
          "type": "address"
        }
      ],
      "name": "exists",
      "outputs": [
        {
          "internalType": "bool",
          "name": "",
          "type": "bool"
        }
      ],
      "stateMutability": "view",
      "type": "function"
    },
    {
      "inputs": [
        {
          "internalType": "address",
          "name": "spender",
          "type": "address"
        },
        {
          "internalType": "uint256",
          "name": "addedValue",
          "type": "uint256"
        }
      ],
      "name": "increaseAllowance",
      "outputs": [
        {
          "internalType": "bool",
          "name": "",
          "type": "bool"
        }
      ],
      "stateMutability": "nonpayable",
      "type": "function"
    },
    {
      "inputs": [],
      "name": "isin",
      "outputs": [
        {
          "internalType": "string",
          "name": "",
          "type": "string"
        }
      ],
      "stateMutability": "view",
      "type": "function"
    },
    {
      "inputs": [],
      "name": "issuanceDate",
      "outputs": [
        {
          "internalType": "uint256",
          "name": "",
          "type": "uint256"
        }
      ],
      "stateMutability": "view",
      "type": "function"
    },
    {
      "inputs": [],
      "name": "issuanceMonth",
      "outputs": [
        {
          "internalType": "uint256",
          "name": "",
          "type": "uint256"
        }
      ],
      "stateMutability": "view",
      "type": "function"
    },
    {
      "inputs": [],
      "name": "issuanceYear",
      "outputs": [
        {
          "internalType": "uint256",
          "name": "",
          "type": "uint256"
        }
      ],
      "stateMutability": "view",
      "type": "function"
    },
    {
      "inputs": [],
      "name": "issuer",
      "outputs": [
        {
          "internalType": "address",
          "name": "",
          "type": "address"
        }
      ],
      "stateMutability": "view",
      "type": "function"
    },
    {
      "inputs": [],
      "name": "maturityDate",
      "outputs": [
        {
          "internalType": "uint256",
          "name": "",
          "type": "uint256"
        }
      ],
      "stateMutability": "view",
      "type": "function"
    },
    {
      "inputs": [],
      "name": "maturityMonth",
      "outputs": [
        {
          "internalType": "uint256",
          "name": "",
          "type": "uint256"
        }
      ],
      "stateMutability": "view",
      "type": "function"
    },
    {
      "inputs": [],
      "name": "maturityYear",
      "outputs": [
        {
          "internalType": "uint256",
          "name": "",
          "type": "uint256"
        }
      ],
      "stateMutability": "view",
      "type": "function"
    },
    {
      "inputs": [
        {
          "internalType": "address",
          "name": "account",
          "type": "address"
        },
        {
          "internalType": "uint256",
          "name": "amount",
          "type": "uint256"
        }
      ],
      "name": "mint",
      "outputs": [
        {
          "internalType": "bool",
          "name": "",
          "type": "bool"
        }
      ],
      "stateMutability": "nonpayable",
      "type": "function"
    },
    {
      "inputs": [],
      "name": "name",
      "outputs": [
        {
          "internalType": "string",
          "name": "",
          "type": "string"
        }
      ],
      "stateMutability": "view",
      "type": "function"
    },
    {
      "inputs": [],
      "name": "paperContractHash",
      "outputs": [
        {
          "internalType": "bytes32",
          "name": "",
          "type": "bytes32"
        }
      ],
      "stateMutability": "view",
      "type": "function"
    },
    {
      "inputs": [],
      "name": "paperContractUrl",
      "outputs": [
        {
          "internalType": "string",
          "name": "",
          "type": "string"
        }
      ],
      "stateMutability": "view",
      "type": "function"
    },
    {
      "inputs": [
        {
          "internalType": "bool",
          "name": "pause",
          "type": "bool"
        }
      ],
      "name": "pauseTransfers",
      "outputs": [
        {
          "internalType": "bool",
          "name": "",
          "type": "bool"
        }
      ],
      "stateMutability": "nonpayable",
      "type": "function"
    },
    {
      "inputs": [],
      "name": "paused",
      "outputs": [
        {
          "internalType": "bool",
          "name": "",
          "type": "bool"
        }
      ],
      "stateMutability": "view",
      "type": "function"
    },
    {
      "inputs": [],
      "name": "redeem",
      "outputs": [],
      "stateMutability": "nonpayable",
      "type": "function"
    },
    {
      "inputs": [],
      "name": "registrar",
      "outputs": [
        {
          "internalType": "address",
          "name": "",
          "type": "address"
        }
      ],
      "stateMutability": "view",
      "type": "function"
    },
    {
      "inputs": [
        {
          "internalType": "address",
          "name": "_address",
          "type": "address"
        }
      ],
      "name": "registrarBurnAllFrom",
      "outputs": [
        {
          "internalType": "bool",
          "name": "",
          "type": "bool"
        }
      ],
      "stateMutability": "nonpayable",
      "type": "function"
    },
    {
      "inputs": [
        {
          "internalType": "address",
          "name": "_address",
          "type": "address"
        },
        {
          "internalType": "uint256",
          "name": "amount",
          "type": "uint256"
        }
      ],
      "name": "registrarBurnFrom",
      "outputs": [
        {
          "internalType": "bool",
          "name": "",
          "type": "bool"
        }
      ],
      "stateMutability": "nonpayable",
      "type": "function"
    },
    {
      "inputs": [
        {
          "internalType": "address",
          "name": "from",
          "type": "address"
        },
        {
          "internalType": "address",
          "name": "to",
          "type": "address"
        },
        {
          "internalType": "uint256",
          "name": "amount",
          "type": "uint256"
        }
      ],
      "name": "registrarTransfer",
      "outputs": [
        {
          "internalType": "bool",
          "name": "",
          "type": "bool"
        }
      ],
      "stateMutability": "nonpayable",
      "type": "function"
    },
    {
      "inputs": [
        {
          "internalType": "address",
          "name": "_newIssuer",
          "type": "address"
        }
      ],
      "name": "setIssuer",
      "outputs": [
        {
          "internalType": "bool",
          "name": "",
          "type": "bool"
        }
      ],
      "stateMutability": "nonpayable",
      "type": "function"
    },
    {
      "inputs": [
        {
          "internalType": "string",
          "name": "paperContractUrl_",
          "type": "string"
        },
        {
          "internalType": "bytes32",
          "name": "contractHash",
          "type": "bytes32"
        }
      ],
      "name": "setPaperContract",
      "outputs": [
        {
          "internalType": "bool",
          "name": "",
          "type": "bool"
        }
      ],
      "stateMutability": "nonpayable",
      "type": "function"
    },
    {
      "inputs": [
        {
          "internalType": "address",
          "name": "_newRegistrar",
          "type": "address"
        }
      ],
      "name": "setRegistrar",
      "outputs": [
        {
          "internalType": "bool",
          "name": "",
          "type": "bool"
        }
      ],
      "stateMutability": "nonpayable",
      "type": "function"
    },
    {
      "inputs": [],
      "name": "symbol",
      "outputs": [
        {
          "internalType": "string",
          "name": "",
          "type": "string"
        }
      ],
      "stateMutability": "view",
      "type": "function"
    },
    {
      "inputs": [],
      "name": "totalSupply",
      "outputs": [
        {
          "internalType": "uint256",
          "name": "",
          "type": "uint256"
        }
      ],
      "stateMutability": "view",
      "type": "function"
    },
    {
      "inputs": [
        {
          "internalType": "address",
          "name": "",
          "type": "address"
        },
        {
          "internalType": "uint256",
          "name": "",
          "type": "uint256"
        }
      ],
      "name": "transfer",
      "outputs": [
        {
          "internalType": "bool",
          "name": "",
          "type": "bool"
        }
      ],
      "stateMutability": "view",
      "type": "function"
    },
    {
      "inputs": [
        {
          "internalType": "address",
          "name": "from",
          "type": "address"
        },
        {
          "internalType": "address",
          "name": "to",
          "type": "address"
        },
        {
          "internalType": "uint256",
          "name": "amount",
          "type": "uint256"
        }
      ],
      "name": "transferFrom",
      "outputs": [
        {
          "internalType": "bool",
          "name": "",
          "type": "bool"
        }
      ],
      "stateMutability": "nonpayable",
      "type": "function"
    }
  ],
  "bytecode": "0x608060405260006012553480156200001657600080fd5b50604051620047a6380380620047a683398181016040528101906200003c9190620006d2565b6040518060400160405280600681526020017f54424f4e443100000000000000000000000000000000000000000000000000008152506040518060400160405280600481526020017f54424e44000000000000000000000000000000000000000000000000000000008152508160039081620000b9919062000a30565b508060049081620000cb919062000a30565b50505088600073ffffffffffffffffffffffffffffffffffffffff168173ffffffffffffffffffffffffffffffffffffffff160362000141576040517f08c379a0000000000000000000000000000000000000000000000000000000008152600401620001389062000b78565b60405180910390fd5b83831162000186576040517f08c379a00000000000000000000000000000000000000000000000000000000081526004016200017d9062000c10565b60405180910390fd5b89600560006101000a81548173ffffffffffffffffffffffffffffffffffffffff021916908373ffffffffffffffffffffffffffffffffffffffff16021790555088600660006101000a81548173ffffffffffffffffffffffffffffffffffffffff021916908373ffffffffffffffffffffffffffffffffffffffff1602179055508460088190555087600a908162000220919062000a30565b5085600e6000018190555086600e60010190816200023f919062000a30565b5083600b8190555082600c8190555081600d60006101000a81548160ff021916908360ff1602179055506200029f600660009054906101000a900473ffffffffffffffffffffffffffffffffffffffff16600854620002af60201b60201c565b5050505050505050505062000d3c565b600073ffffffffffffffffffffffffffffffffffffffff168273ffffffffffffffffffffffffffffffffffffffff160362000321576040517f08c379a0000000000000000000000000000000000000000000000000000000008152600401620003189062000c82565b60405180910390fd5b62000335600083836200041c60201b60201c565b806002600082825462000349919062000cd3565b92505081905550806000808473ffffffffffffffffffffffffffffffffffffffff1673ffffffffffffffffffffffffffffffffffffffff168152602001908152602001600020600082825401925050819055508173ffffffffffffffffffffffffffffffffffffffff16600073ffffffffffffffffffffffffffffffffffffffff167fddf252ad1be2c89b69c2b068fc378daa952ba7f163c4a11628f55a4df523b3ef83604051620003fc919062000d1f565b60405180910390a362000418600083836200042160201b60201c565b5050565b505050565b505050565b6000604051905090565b600080fd5b600080fd5b600073ffffffffffffffffffffffffffffffffffffffff82169050919050565b600062000467826200043a565b9050919050565b62000479816200045a565b81146200048557600080fd5b50565b60008151905062000499816200046e565b92915050565b600080fd5b600080fd5b6000601f19601f8301169050919050565b7f4e487b7100000000000000000000000000000000000000000000000000000000600052604160045260246000fd5b620004f482620004a9565b810181811067ffffffffffffffff82111715620005165762000515620004ba565b5b80604052505050565b60006200052b62000426565b9050620005398282620004e9565b919050565b600067ffffffffffffffff8211156200055c576200055b620004ba565b5b6200056782620004a9565b9050602081019050919050565b60005b838110156200059457808201518184015260208101905062000577565b60008484015250505050565b6000620005b7620005b1846200053e565b6200051f565b905082815260208101848484011115620005d657620005d5620004a4565b5b620005e384828562000574565b509392505050565b600082601f8301126200060357620006026200049f565b5b815162000615848260208601620005a0565b91505092915050565b6000819050919050565b62000633816200061e565b81146200063f57600080fd5b50565b600081519050620006538162000628565b92915050565b6000819050919050565b6200066e8162000659565b81146200067a57600080fd5b50565b6000815190506200068e8162000663565b92915050565b600060ff82169050919050565b620006ac8162000694565b8114620006b857600080fd5b50565b600081519050620006cc81620006a1565b92915050565b60008060008060008060008060006101208a8c031215620006f857620006f762000430565b5b6000620007088c828d0162000488565b99505060206200071b8c828d0162000488565b98505060408a015167ffffffffffffffff8111156200073f576200073e62000435565b5b6200074d8c828d01620005eb565b97505060608a015167ffffffffffffffff81111562000771576200077062000435565b5b6200077f8c828d01620005eb565b9650506080620007928c828d0162000642565b95505060a0620007a58c828d016200067d565b94505060c0620007b88c828d016200067d565b93505060e0620007cb8c828d016200067d565b925050610100620007df8c828d01620006bb565b9150509295985092959850929598565b600081519050919050565b7f4e487b7100000000000000000000000000000000000000000000000000000000600052602260045260246000fd5b600060028204905060018216806200084257607f821691505b602082108103620008585762000857620007fa565b5b50919050565b60008190508160005260206000209050919050565b60006020601f8301049050919050565b600082821b905092915050565b600060088302620008c27fffffffffffffffffffffffffffffffffffffffffffffffffffffffffffffffff8262000883565b620008ce868362000883565b95508019841693508086168417925050509392505050565b6000819050919050565b6000620009116200090b620009058462000659565b620008e6565b62000659565b9050919050565b6000819050919050565b6200092d83620008f0565b620009456200093c8262000918565b84845462000890565b825550505050565b600090565b6200095c6200094d565b6200096981848462000922565b505050565b5b8181101562000991576200098560008262000952565b6001810190506200096f565b5050565b601f821115620009e057620009aa816200085e565b620009b58462000873565b81016020851015620009c5578190505b620009dd620009d48562000873565b8301826200096e565b50505b505050565b600082821c905092915050565b600062000a0560001984600802620009e5565b1980831691505092915050565b600062000a208383620009f2565b9150826002028217905092915050565b62000a3b82620007ef565b67ffffffffffffffff81111562000a575762000a56620004ba565b5b62000a63825462000829565b62000a7082828562000995565b600060209050601f83116001811462000aa8576000841562000a93578287015190505b62000a9f858262000a12565b86555062000b0f565b601f19841662000ab8866200085e565b60005b8281101562000ae25784890151825560018201915060208501945060208101905062000abb565b8683101562000b02578489015162000afe601f891682620009f2565b8355505b6001600288020188555050505b505050505050565b600082825260208201905092915050565b7f5a65726f2061646472657373206e6f7420616c6c6f7765640000000000000000600082015250565b600062000b6060188362000b17565b915062000b6d8262000b28565b602082019050919050565b6000602082019050818103600083015262000b938162000b51565b9050919050565b7f4d6174757269747920446174652073686f756c6420626520677265617465722060008201527f7468616e2069737375616e636520646174610000000000000000000000000000602082015250565b600062000bf860328362000b17565b915062000c058262000b9a565b604082019050919050565b6000602082019050818103600083015262000c2b8162000be9565b9050919050565b7f45524332303a206d696e7420746f20746865207a65726f206164647265737300600082015250565b600062000c6a601f8362000b17565b915062000c778262000c32565b602082019050919050565b6000602082019050818103600083015262000c9d8162000c5b565b9050919050565b7f4e487b7100000000000000000000000000000000000000000000000000000000600052601160045260246000fd5b600062000ce08262000659565b915062000ced8362000659565b925082820190508082111562000d085762000d0762000ca4565b5b92915050565b62000d198162000659565b82525050565b600060208201905062000d36600083018462000d0e565b92915050565b613a5a8062000d4c6000396000f3fe608060405234801561001057600080fd5b50600436106102325760003560e01c806370a0823111610130578063a9059cbb116100b8578063eb1d81521161007c578063eb1d815214610721578063f11aafe114610751578063f15527e714610781578063f6a3d24e1461079f578063faab9d39146107cf57610232565b8063a9059cbb1461067b578063be040fb0146106ab578063bfcf78b8146106b5578063d59624b4146106d3578063dd62ed3e146106f157610232565b806395d89b41116100ff57806395d89b41146105d3578063986c035d146105f1578063a457c2d71461060f578063a71c01f91461063f578063a766bc981461065d57610232565b806370a0823114610549578063771282f61461057957806382d5a60d146105975780638c4d5e25146105b557610232565b8063313ce567116101be57806343936c4d1161018257806343936c4d1461047d5780634edc689d146104ad57806355cc4e57146104dd578063575aa0731461050d5780635c975abb1461052b57610232565b8063313ce5671461039f57806339509351146103bd57806340908298146103ed57806340c10f191461041d57806341c71aa91461044d57610232565b80631d143848116102055780631d143848146102d357806323b872dd146102f15780632848aeaf1461032157806329af3bde146103515780632b20e3971461038157610232565b806306fdde0314610237578063095ea7b31461025557806318160ddd146102855780631c69dd28146102a3575b600080fd5b61023f6107ff565b60405161024c9190612803565b60405180910390f35b61026f600480360381019061026a91906128cd565b610891565b60405161027c9190612928565b60405180910390f35b61028d6108b4565b60405161029a9190612952565b60405180910390f35b6102bd60048036038101906102b891906128cd565b6108be565b6040516102ca9190612928565b60405180910390f35b6102db610ab4565b6040516102e8919061297c565b60405180910390f35b61030b60048036038101906103069190612997565b610ade565b6040516103189190612928565b60405180910390f35b61033b600480360381019061033691906129ea565b610b0d565b6040516103489190612928565b60405180910390f35b61036b600480360381019061036691906129ea565b610b2d565b6040516103789190612928565b60405180910390f35b610389610b48565b604051610396919061297c565b60405180910390f35b6103a7610b72565b6040516103b49190612a33565b60405180910390f35b6103d760048036038101906103d291906128cd565b610b89565b6040516103e49190612928565b60405180910390f35b610407600480360381019061040291906129ea565b610bc0565b6040516104149190612928565b60405180910390f35b610437600480360381019061043291906128cd565b610c16565b6040516104449190612928565b60405180910390f35b61046760048036038101906104629190612997565b610c2c565b6040516104749190612928565b60405180910390f35b61049760048036038101906104929190612bb9565b610f50565b6040516104a49190612928565b60405180910390f35b6104c760048036038101906104c29190612c41565b611090565b6040516104d49190612928565b60405180910390f35b6104f760048036038101906104f291906129ea565b611278565b6040516105049190612928565b60405180910390f35b61051561148a565b6040516105229190612952565b60405180910390f35b61053361149c565b6040516105409190612928565b60405180910390f35b610563600480360381019061055e91906129ea565b6114b3565b6040516105709190612952565b60405180910390f35b6105816114fb565b60405161058e9190612952565b60405180910390f35b61059f61152d565b6040516105ac9190612803565b60405180910390f35b6105bd6115bf565b6040516105ca9190612952565b60405180910390f35b6105db6115d1565b6040516105e89190612803565b60405180910390f35b6105f9611663565b6040516106069190612952565b60405180910390f35b610629600480360381019061062491906128cd565b611675565b6040516106369190612928565b60405180910390f35b6106476116ec565b6040516106549190612c90565b60405180910390f35b6106656116f9565b6040516106729190612952565b60405180910390f35b610695600480360381019061069091906128cd565b61170b565b6040516106a29190612928565b60405180910390f35b6106b36117f7565b005b6106bd611986565b6040516106ca9190612952565b60405180910390f35b6106db611998565b6040516106e89190612952565b60405180910390f35b61070b60048036038101906107069190612cab565b6119aa565b6040516107189190612952565b60405180910390f35b61073b600480360381019061073691906129ea565b611a31565b6040516107489190612952565b60405180910390f35b61076b60048036038101906107669190612ceb565b611a49565b6040516107789190612928565b60405180910390f35b610789611b35565b6040516107969190612803565b60405180910390f35b6107b960048036038101906107b491906129ea565b611bca565b6040516107c69190612928565b60405180910390f35b6107e960048036038101906107e491906129ea565b611bea565b6040516107f69190612928565b60405180910390f35b60606003805461080e90612d47565b80601f016020809104026020016040519081016040528092919081815260200182805461083a90612d47565b80156108875780601f1061085c57610100808354040283529160200191610887565b820191906000526020600020905b81548152906001019060200180831161086a57829003601f168201915b5050505050905090565b60008061089c611dfc565b90506108a9818585611e04565b600191505092915050565b6000600854905090565b6000600960009054906101000a900460ff1615610910576040517f08c379a000000000000000000000000000000000000000000000000000000000815260040161090790612dc4565b60405180910390fd5b600560009054906101000a900473ffffffffffffffffffffffffffffffffffffffff1673ffffffffffffffffffffffffffffffffffffffff163373ffffffffffffffffffffffffffffffffffffffff16146109a0576040517f08c379a000000000000000000000000000000000000000000000000000000000815260040161099790612e56565b60405180910390fd5b600082116109e3576040517f08c379a00000000000000000000000000000000000000000000000000000000081526004016109da90612ee8565b60405180910390fd5b816109ed846114b3565b1015610a2e576040517f08c379a0000000000000000000000000000000000000000000000000000000008152600401610a2590612f54565b60405180910390fd5b610a39836001611090565b50610a6783600560009054906101000a900473ffffffffffffffffffffffffffffffffffffffff1684611e04565b610a718383611fcd565b7f512586160ebd4dc6945ba9ec5d21a1f723f26f3c7aa36cdffb6818d4e7b880308383604051610aa2929190612f74565b60405180910390a16001905092915050565b6000600660009054906101000a900473ffffffffffffffffffffffffffffffffffffffff16905090565b600080610ae9611dfc565b9050610af685828561219a565b610b01858585612226565b60019150509392505050565b60106020528060005260406000206000915054906101000a900460ff1681565b6000610b4182610b3c846114b3565b6108be565b9050919050565b6000600560009054906101000a900473ffffffffffffffffffffffffffffffffffffffff16905090565b6000600d60009054906101000a900460ff16905090565b600080610b94611dfc565b9050610bb5818585610ba685896119aa565b610bb09190612fcc565b611e04565b600191505092915050565b6000601060008373ffffffffffffffffffffffffffffffffffffffff1673ffffffffffffffffffffffffffffffffffffffff16815260200190815260200160002060009054906101000a900460ff169050919050565b6000610c22838361249c565b6001905092915050565b6000600960009054906101000a900460ff1615610c7e576040517f08c379a0000000000000000000000000000000000000000000000000000000008152600401610c7590612dc4565b60405180910390fd5b600560009054906101000a900473ffffffffffffffffffffffffffffffffffffffff1673ffffffffffffffffffffffffffffffffffffffff163373ffffffffffffffffffffffffffffffffffffffff1614610d0e576040517f08c379a0000000000000000000000000000000000000000000000000000000008152600401610d0590612e56565b60405180910390fd5b82601060008273ffffffffffffffffffffffffffffffffffffffff1673ffffffffffffffffffffffffffffffffffffffff16815260200190815260200160002060009054906101000a900460ff16610d9b576040517f08c379a0000000000000000000000000000000000000000000000000000000008152600401610d929061304c565b60405180910390fd5b84600073ffffffffffffffffffffffffffffffffffffffff168173ffffffffffffffffffffffffffffffffffffffff1603610e0b576040517f08c379a0000000000000000000000000000000000000000000000000000000008152600401610e02906130b8565b60405180910390fd5b84600073ffffffffffffffffffffffffffffffffffffffff168173ffffffffffffffffffffffffffffffffffffffff1603610e7b576040517f08c379a0000000000000000000000000000000000000000000000000000000008152600401610e72906130b8565b60405180910390fd5b86601060008273ffffffffffffffffffffffffffffffffffffffff1673ffffffffffffffffffffffffffffffffffffffff16815260200190815260200160002060009054906101000a900460ff16610f08576040517f08c379a0000000000000000000000000000000000000000000000000000000008152600401610eff90613124565b60405180910390fd5b610f3588600560009054906101000a900473ffffffffffffffffffffffffffffffffffffffff1688611e04565b610f40888888610ade565b5060019450505050509392505050565b6000600960009054906101000a900460ff1615610fa2576040517f08c379a0000000000000000000000000000000000000000000000000000000008152600401610f9990612dc4565b60405180910390fd5b600560009054906101000a900473ffffffffffffffffffffffffffffffffffffffff1673ffffffffffffffffffffffffffffffffffffffff163373ffffffffffffffffffffffffffffffffffffffff1614611032576040517f08c379a000000000000000000000000000000000000000000000000000000000815260040161102990612e56565b60405180910390fd5b82600e600101908161104491906132f0565b5081600e600001819055507fd1fdbd53bef11619b5e0bcd2c7a0360acbbef5279d0e4525e67bac0d0e5ac8338260405161107e9190612c90565b60405180910390a16001905092915050565b6000600960009054906101000a900460ff16156110e2576040517f08c379a00000000000000000000000000000000000000000000000000000000081526004016110d990612dc4565b60405180910390fd5b600560009054906101000a900473ffffffffffffffffffffffffffffffffffffffff1673ffffffffffffffffffffffffffffffffffffffff163373ffffffffffffffffffffffffffffffffffffffff1614611172576040517f08c379a000000000000000000000000000000000000000000000000000000000815260040161116990612e56565b60405180910390fd5b81601060008573ffffffffffffffffffffffffffffffffffffffff1673ffffffffffffffffffffffffffffffffffffffff16815260200190815260200160002060006101000a81548160ff021916908315150217905550601260008154809291906111dc906133c2565b91905055508260116000601254815260200190815260200160002060006101000a81548173ffffffffffffffffffffffffffffffffffffffff021916908373ffffffffffffffffffffffffffffffffffffffff1602179055507f40de2489314b1bde2dcef9f1bd66bb59c04cbca20d9da5a8d7e6fa576048b378838360405161126692919061340a565b60405180910390a16001905092915050565b6000600560009054906101000a900473ffffffffffffffffffffffffffffffffffffffff1673ffffffffffffffffffffffffffffffffffffffff163373ffffffffffffffffffffffffffffffffffffffff161461130a576040517f08c379a000000000000000000000000000000000000000000000000000000000815260040161130190612e56565b60405180910390fd5b81600073ffffffffffffffffffffffffffffffffffffffff168173ffffffffffffffffffffffffffffffffffffffff160361137a576040517f08c379a0000000000000000000000000000000000000000000000000000000008152600401611371906130b8565b60405180910390fd5b82601060008273ffffffffffffffffffffffffffffffffffffffff1673ffffffffffffffffffffffffffffffffffffffff16815260200190815260200160002060009054906101000a900460ff16611407576040517f08c379a00000000000000000000000000000000000000000000000000000000081526004016113fe90613124565b60405180910390fd5b83600660006101000a81548173ffffffffffffffffffffffffffffffffffffffff021916908373ffffffffffffffffffffffffffffffffffffffff1602179055507ff865beaf887fe37b7831c60348eadb1f2b900a0bb72c842a5e98a65371a311ad84604051611477919061297c565b60405180910390a1600192505050919050565b6000611497600b546125f2565b905090565b6000600960009054906101000a900460ff16905090565b60008060008373ffffffffffffffffffffffffffffffffffffffff1673ffffffffffffffffffffffffffffffffffffffff168152602001908152602001600020549050919050565b6000611528600660009054906101000a900473ffffffffffffffffffffffffffffffffffffffff166114b3565b905090565b6060600a805461153c90612d47565b80601f016020809104026020016040519081016040528092919081815260200182805461156890612d47565b80156115b55780601f1061158a576101008083540402835291602001916115b5565b820191906000526020600020905b81548152906001019060200180831161159857829003601f168201915b5050505050905090565b60006115cc600c54612618565b905090565b6060600480546115e090612d47565b80601f016020809104026020016040519081016040528092919081815260200182805461160c90612d47565b80156116595780601f1061162e57610100808354040283529160200191611659565b820191906000526020600020905b81548152906001019060200180831161163c57829003601f168201915b5050505050905090565b6000611670600b54612618565b905090565b600080611680611dfc565b9050600061168e82866119aa565b9050838110156116d3576040517f08c379a00000000000000000000000000000000000000000000000000000000081526004016116ca906134a5565b60405180910390fd5b6116e08286868403611e04565b60019250505092915050565b6000600e60000154905090565b6000611706600b5461263d565b905090565b6000600560009054906101000a900473ffffffffffffffffffffffffffffffffffffffff1673ffffffffffffffffffffffffffffffffffffffff163373ffffffffffffffffffffffffffffffffffffffff161461179d576040517f08c379a000000000000000000000000000000000000000000000000000000000815260040161179490612e56565b60405180910390fd5b600960009054906101000a900460ff16156117ed576040517f08c379a00000000000000000000000000000000000000000000000000000000081526004016117e490612dc4565b60405180910390fd5b6000905092915050565b600560009054906101000a900473ffffffffffffffffffffffffffffffffffffffff1673ffffffffffffffffffffffffffffffffffffffff163373ffffffffffffffffffffffffffffffffffffffff1614611887576040517f08c379a000000000000000000000000000000000000000000000000000000000815260040161187e90612e56565b60405180910390fd5b60005b6012548160ff1611611983576000601160008360ff16815260200190815260200160002060009054906101000a900473ffffffffffffffffffffffffffffffffffffffff16905060006118dc826114b3565b9050600073ffffffffffffffffffffffffffffffffffffffff168273ffffffffffffffffffffffffffffffffffffffff161461196e5761193f82600560009054906101000a900473ffffffffffffffffffffffffffffffffffffffff1683611e04565b61196c82600660009054906101000a900473ffffffffffffffffffffffffffffffffffffffff1683610ade565b505b5050808061197b906134c5565b91505061188a565b50565b6000611993600c546125f2565b905090565b60006119a5600c5461263d565b905090565b6000600160008473ffffffffffffffffffffffffffffffffffffffff1673ffffffffffffffffffffffffffffffffffffffff16815260200190815260200160002060008373ffffffffffffffffffffffffffffffffffffffff1673ffffffffffffffffffffffffffffffffffffffff16815260200190815260200160002054905092915050565b60136020528060005260406000206000915090505481565b6000600560009054906101000a900473ffffffffffffffffffffffffffffffffffffffff1673ffffffffffffffffffffffffffffffffffffffff163373ffffffffffffffffffffffffffffffffffffffff1614611adb576040517f08c379a0000000000000000000000000000000000000000000000000000000008152600401611ad290612e56565b60405180910390fd5b81600960006101000a81548160ff0219169083151502179055507f10e1c3fcaff06b68391033547e8f9bb8067d7c4a2e32659b0629153814d242d382604051611b249190612928565b60405180910390a160019050919050565b6060600e6001018054611b4790612d47565b80601f0160208091040260200160405190810160405280929190818152602001828054611b7390612d47565b8015611bc05780601f10611b9557610100808354040283529160200191611bc0565b820191906000526020600020905b815481529060010190602001808311611ba357829003601f168201915b5050505050905090565b60146020528060005260406000206000915054906101000a900460ff1681565b6000600560009054906101000a900473ffffffffffffffffffffffffffffffffffffffff1673ffffffffffffffffffffffffffffffffffffffff163373ffffffffffffffffffffffffffffffffffffffff1614611c7c576040517f08c379a0000000000000000000000000000000000000000000000000000000008152600401611c7390612e56565b60405180910390fd5b81600073ffffffffffffffffffffffffffffffffffffffff168173ffffffffffffffffffffffffffffffffffffffff1603611cec576040517f08c379a0000000000000000000000000000000000000000000000000000000008152600401611ce3906130b8565b60405180910390fd5b82601060008273ffffffffffffffffffffffffffffffffffffffff1673ffffffffffffffffffffffffffffffffffffffff16815260200190815260200160002060009054906101000a900460ff16611d79576040517f08c379a0000000000000000000000000000000000000000000000000000000008152600401611d7090613124565b60405180910390fd5b83600560006101000a81548173ffffffffffffffffffffffffffffffffffffffff021916908373ffffffffffffffffffffffffffffffffffffffff1602179055507f02d240b9830bf868a00ac1b1386f4efb75ec312bdd6b6c2d9ad6675ced17fec884604051611de9919061297c565b60405180910390a1600192505050919050565b600033905090565b600073ffffffffffffffffffffffffffffffffffffffff168373ffffffffffffffffffffffffffffffffffffffff1603611e73576040517f08c379a0000000000000000000000000000000000000000000000000000000008152600401611e6a90613560565b60405180910390fd5b600073ffffffffffffffffffffffffffffffffffffffff168273ffffffffffffffffffffffffffffffffffffffff1603611ee2576040517f08c379a0000000000000000000000000000000000000000000000000000000008152600401611ed9906135f2565b60405180910390fd5b80600160008573ffffffffffffffffffffffffffffffffffffffff1673ffffffffffffffffffffffffffffffffffffffff16815260200190815260200160002060008473ffffffffffffffffffffffffffffffffffffffff1673ffffffffffffffffffffffffffffffffffffffff168152602001908152602001600020819055508173ffffffffffffffffffffffffffffffffffffffff168373ffffffffffffffffffffffffffffffffffffffff167f8c5be1e5ebec7d5bd14f71427d1e84f3dd0314c0f7b2291e5b200ac8c7c3b92583604051611fc09190612952565b60405180910390a3505050565b600073ffffffffffffffffffffffffffffffffffffffff168273ffffffffffffffffffffffffffffffffffffffff160361203c576040517f08c379a000000000000000000000000000000000000000000000000000000000815260040161203390613684565b60405180910390fd5b61204882600083612664565b60008060008473ffffffffffffffffffffffffffffffffffffffff1673ffffffffffffffffffffffffffffffffffffffff168152602001908152602001600020549050818110156120ce576040517f08c379a00000000000000000000000000000000000000000000000000000000081526004016120c590613716565b60405180910390fd5b8181036000808573ffffffffffffffffffffffffffffffffffffffff1673ffffffffffffffffffffffffffffffffffffffff1681526020019081526020016000208190555081600260008282540392505081905550600073ffffffffffffffffffffffffffffffffffffffff168373ffffffffffffffffffffffffffffffffffffffff167fddf252ad1be2c89b69c2b068fc378daa952ba7f163c4a11628f55a4df523b3ef846040516121819190612952565b60405180910390a361219583600084612669565b505050565b60006121a684846119aa565b90507fffffffffffffffffffffffffffffffffffffffffffffffffffffffffffffffff81146122205781811015612212576040517f08c379a000000000000000000000000000000000000000000000000000000000815260040161220990613782565b60405180910390fd5b61221f8484848403611e04565b5b50505050565b600073ffffffffffffffffffffffffffffffffffffffff168373ffffffffffffffffffffffffffffffffffffffff1603612295576040517f08c379a000000000000000000000000000000000000000000000000000000000815260040161228c90613814565b60405180910390fd5b600073ffffffffffffffffffffffffffffffffffffffff168273ffffffffffffffffffffffffffffffffffffffff1603612304576040517f08c379a00000000000000000000000000000000000000000000000000000000081526004016122fb906138a6565b60405180910390fd5b61230f838383612664565b60008060008573ffffffffffffffffffffffffffffffffffffffff1673ffffffffffffffffffffffffffffffffffffffff16815260200190815260200160002054905081811015612395576040517f08c379a000000000000000000000000000000000000000000000000000000000815260040161238c90613938565b60405180910390fd5b8181036000808673ffffffffffffffffffffffffffffffffffffffff1673ffffffffffffffffffffffffffffffffffffffff16815260200190815260200160002081905550816000808573ffffffffffffffffffffffffffffffffffffffff1673ffffffffffffffffffffffffffffffffffffffff168152602001908152602001600020600082825401925050819055508273ffffffffffffffffffffffffffffffffffffffff168473ffffffffffffffffffffffffffffffffffffffff167fddf252ad1be2c89b69c2b068fc378daa952ba7f163c4a11628f55a4df523b3ef846040516124839190612952565b60405180910390a3612496848484612669565b50505050565b600073ffffffffffffffffffffffffffffffffffffffff168273ffffffffffffffffffffffffffffffffffffffff160361250b576040517f08c379a0000000000000000000000000000000000000000000000000000000008152600401612502906139a4565b60405180910390fd5b61251760008383612664565b80600260008282546125299190612fcc565b92505081905550806000808473ffffffffffffffffffffffffffffffffffffffff1673ffffffffffffffffffffffffffffffffffffffff168152602001908152602001600020600082825401925050819055508173ffffffffffffffffffffffffffffffffffffffff16600073ffffffffffffffffffffffffffffffffffffffff167fddf252ad1be2c89b69c2b068fc378daa952ba7f163c4a11628f55a4df523b3ef836040516125da9190612952565b60405180910390a36125ee60008383612669565b5050565b600061260b620151808361260691906139f3565b61266e565b9091505080915050919050565b6000612631620151808361262c91906139f3565b61266e565b90505080915050919050565b6000612656620151808361265191906139f3565b61266e565b909150905080915050919050565b505050565b505050565b600080600080849050600062253d8c62010bd98301019050600062023ab1826004028161269e5761269d6139c4565b5b059050600460038262023ab10201816126ba576126b96139c4565b5b0582039150600062164b0960018401610fa002816126db576126da6139c4565b5b059050601f6004826105b502816126f5576126f46139c4565b5b058403019250600061098f8460500281612712576127116139c4565b5b059050600060508261098f028161272c5761272b6139c4565b5b0585039050600b8281612742576127416139c4565b5b05945084600c0260028301039150848360318603606402010192508298508197508096505050505050509193909250565b600081519050919050565b600082825260208201905092915050565b60005b838110156127ad578082015181840152602081019050612792565b60008484015250505050565b6000601f19601f8301169050919050565b60006127d582612773565b6127df818561277e565b93506127ef81856020860161278f565b6127f8816127b9565b840191505092915050565b6000602082019050818103600083015261281d81846127ca565b905092915050565b6000604051905090565b600080fd5b600080fd5b600073ffffffffffffffffffffffffffffffffffffffff82169050919050565b600061286482612839565b9050919050565b61287481612859565b811461287f57600080fd5b50565b6000813590506128918161286b565b92915050565b6000819050919050565b6128aa81612897565b81146128b557600080fd5b50565b6000813590506128c7816128a1565b92915050565b600080604083850312156128e4576128e361282f565b5b60006128f285828601612882565b9250506020612903858286016128b8565b9150509250929050565b60008115159050919050565b6129228161290d565b82525050565b600060208201905061293d6000830184612919565b92915050565b61294c81612897565b82525050565b60006020820190506129676000830184612943565b92915050565b61297681612859565b82525050565b6000602082019050612991600083018461296d565b92915050565b6000806000606084860312156129b0576129af61282f565b5b60006129be86828701612882565b93505060206129cf86828701612882565b92505060406129e0868287016128b8565b9150509250925092565b600060208284031215612a00576129ff61282f565b5b6000612a0e84828501612882565b91505092915050565b600060ff82169050919050565b612a2d81612a17565b82525050565b6000602082019050612a486000830184612a24565b92915050565b600080fd5b600080fd5b7f4e487b7100000000000000000000000000000000000000000000000000000000600052604160045260246000fd5b612a90826127b9565b810181811067ffffffffffffffff82111715612aaf57612aae612a58565b5b80604052505050565b6000612ac2612825565b9050612ace8282612a87565b919050565b600067ffffffffffffffff821115612aee57612aed612a58565b5b612af7826127b9565b9050602081019050919050565b82818337600083830152505050565b6000612b26612b2184612ad3565b612ab8565b905082815260208101848484011115612b4257612b41612a53565b5b612b4d848285612b04565b509392505050565b600082601f830112612b6a57612b69612a4e565b5b8135612b7a848260208601612b13565b91505092915050565b6000819050919050565b612b9681612b83565b8114612ba157600080fd5b50565b600081359050612bb381612b8d565b92915050565b60008060408385031215612bd057612bcf61282f565b5b600083013567ffffffffffffffff811115612bee57612bed612834565b5b612bfa85828601612b55565b9250506020612c0b85828601612ba4565b9150509250929050565b612c1e8161290d565b8114612c2957600080fd5b50565b600081359050612c3b81612c15565b92915050565b60008060408385031215612c5857612c5761282f565b5b6000612c6685828601612882565b9250506020612c7785828601612c2c565b9150509250929050565b612c8a81612b83565b82525050565b6000602082019050612ca56000830184612c81565b92915050565b60008060408385031215612cc257612cc161282f565b5b6000612cd085828601612882565b9250506020612ce185828601612882565b9150509250929050565b600060208284031215612d0157612d0061282f565b5b6000612d0f84828501612c2c565b91505092915050565b7f4e487b7100000000000000000000000000000000000000000000000000000000600052602260045260246000fd5b60006002820490506001821680612d5f57607f821691505b602082108103612d7257612d71612d18565b5b50919050565b7f436f6e74726163742069732063757272656e746c792070617573656400000000600082015250565b6000612dae601c8361277e565b9150612db982612d78565b602082019050919050565b60006020820190508181036000830152612ddd81612da1565b9050919050565b7f556e617574686f72697365642063616c6c20746f20726567697374726172207260008201527f6573747269637465642066756e6374696f6e0000000000000000000000000000602082015250565b6000612e4060328361277e565b9150612e4b82612de4565b604082019050919050565b60006020820190508181036000830152612e6f81612e33565b9050919050565b7f556e69747320746f206275726e206d757374206265206772656174657220746860008201527f616e203020000000000000000000000000000000000000000000000000000000602082015250565b6000612ed260258361277e565b9150612edd82612e76565b604082019050919050565b60006020820190508181036000830152612f0181612ec5565b9050919050565b7f496e73756666696369656e7420756e69747320746f206275726e200000000000600082015250565b6000612f3e601b8361277e565b9150612f4982612f08565b602082019050919050565b60006020820190508181036000830152612f6d81612f31565b9050919050565b6000604082019050612f89600083018561296d565b612f966020830184612943565b9392505050565b7f4e487b7100000000000000000000000000000000000000000000000000000000600052601160045260246000fd5b6000612fd782612897565b9150612fe283612897565b9250828201905080821115612ffa57612ff9612f9d565b5b92915050565b7f546f2041646472657373206e6f7420616c6c6f77656400000000000000000000600082015250565b600061303660168361277e565b915061304182613000565b602082019050919050565b6000602082019050818103600083015261306581613029565b9050919050565b7f5a65726f2061646472657373206e6f7420616c6c6f7765640000000000000000600082015250565b60006130a260188361277e565b91506130ad8261306c565b602082019050919050565b600060208201905081810360008301526130d181613095565b9050919050565b7f46726f6d2041646472657373206e6f7420616c6c6f7765640000000000000000600082015250565b600061310e60188361277e565b9150613119826130d8565b602082019050919050565b6000602082019050818103600083015261313d81613101565b9050919050565b60008190508160005260206000209050919050565b60006020601f8301049050919050565b600082821b905092915050565b6000600883026131a67fffffffffffffffffffffffffffffffffffffffffffffffffffffffffffffffff82613169565b6131b08683613169565b95508019841693508086168417925050509392505050565b6000819050919050565b60006131ed6131e86131e384612897565b6131c8565b612897565b9050919050565b6000819050919050565b613207836131d2565b61321b613213826131f4565b848454613176565b825550505050565b600090565b613230613223565b61323b8184846131fe565b505050565b5b8181101561325f57613254600082613228565b600181019050613241565b5050565b601f8211156132a45761327581613144565b61327e84613159565b8101602085101561328d578190505b6132a161329985613159565b830182613240565b50505b505050565b600082821c905092915050565b60006132c7600019846008026132a9565b1980831691505092915050565b60006132e083836132b6565b9150826002028217905092915050565b6132f982612773565b67ffffffffffffffff81111561331257613311612a58565b5b61331c8254612d47565b613327828285613263565b600060209050601f83116001811461335a5760008415613348578287015190505b61335285826132d4565b8655506133ba565b601f19841661336886613144565b60005b828110156133905784890151825560018201915060208501945060208101905061336b565b868310156133ad57848901516133a9601f8916826132b6565b8355505b6001600288020188555050505b505050505050565b60006133cd82612897565b91507fffffffffffffffffffffffffffffffffffffffffffffffffffffffffffffffff82036133ff576133fe612f9d565b5b600182019050919050565b600060408201905061341f600083018561296d565b61342c6020830184612919565b9392505050565b7f45524332303a2064656372656173656420616c6c6f77616e63652062656c6f7760008201527f207a65726f000000000000000000000000000000000000000000000000000000602082015250565b600061348f60258361277e565b915061349a82613433565b604082019050919050565b600060208201905081810360008301526134be81613482565b9050919050565b60006134d082612a17565b915060ff82036134e3576134e2612f9d565b5b600182019050919050565b7f45524332303a20617070726f76652066726f6d20746865207a65726f2061646460008201527f7265737300000000000000000000000000000000000000000000000000000000602082015250565b600061354a60248361277e565b9150613555826134ee565b604082019050919050565b600060208201905081810360008301526135798161353d565b9050919050565b7f45524332303a20617070726f766520746f20746865207a65726f20616464726560008201527f7373000000000000000000000000000000000000000000000000000000000000602082015250565b60006135dc60228361277e565b91506135e782613580565b604082019050919050565b6000602082019050818103600083015261360b816135cf565b9050919050565b7f45524332303a206275726e2066726f6d20746865207a65726f2061646472657360008201527f7300000000000000000000000000000000000000000000000000000000000000602082015250565b600061366e60218361277e565b915061367982613612565b604082019050919050565b6000602082019050818103600083015261369d81613661565b9050919050565b7f45524332303a206275726e20616d6f756e7420657863656564732062616c616e60008201527f6365000000000000000000000000000000000000000000000000000000000000602082015250565b600061370060228361277e565b915061370b826136a4565b604082019050919050565b6000602082019050818103600083015261372f816136f3565b9050919050565b7f45524332303a20696e73756666696369656e7420616c6c6f77616e6365000000600082015250565b600061376c601d8361277e565b915061377782613736565b602082019050919050565b6000602082019050818103600083015261379b8161375f565b9050919050565b7f45524332303a207472616e736665722066726f6d20746865207a65726f20616460008201527f6472657373000000000000000000000000000000000000000000000000000000602082015250565b60006137fe60258361277e565b9150613809826137a2565b604082019050919050565b6000602082019050818103600083015261382d816137f1565b9050919050565b7f45524332303a207472616e7366657220746f20746865207a65726f206164647260008201527f6573730000000000000000000000000000000000000000000000000000000000602082015250565b600061389060238361277e565b915061389b82613834565b604082019050919050565b600060208201905081810360008301526138bf81613883565b9050919050565b7f45524332303a207472616e7366657220616d6f756e742065786365656473206260008201527f616c616e63650000000000000000000000000000000000000000000000000000602082015250565b600061392260268361277e565b915061392d826138c6565b604082019050919050565b6000602082019050818103600083015261395181613915565b9050919050565b7f45524332303a206d696e7420746f20746865207a65726f206164647265737300600082015250565b600061398e601f8361277e565b915061399982613958565b602082019050919050565b600060208201905081810360008301526139bd81613981565b9050919050565b7f4e487b7100000000000000000000000000000000000000000000000000000000600052601260045260246000fd5b60006139fe82612897565b9150613a0983612897565b925082613a1957613a186139c4565b5b82820490509291505056fea26469706673582212200aed0846cd0bfc10a3977e16e0aab0386194a97468360af4fbb376342c66f78d64736f6c63430008120033",
  "linkReferences": {},
  "deployedLinkReferences": {}
}