{
  "contractName": "DvP",
  "abi": [
    {
      "inputs": [
        {
          "internalType": "address",
          "name": "_tokenA",
          "type": "address"
        },
        {
          "internalType": "address",
          "name": "_tokenB",
          "type": "address"
        }
      ],
      "stateMutability": "nonpayable",
      "type": "constructor"
    },
    {
      "anonymous": false,
      "inputs": [
        {
          "indexed": false,
          "internalType": "uint256",
          "name": "swapId",
          "type": "uint256"
        }
      ],
      "name": "SwapCanceled",
      "type": "event"
    },
    {
      "anonymous": false,
      "inputs": [
        {
          "indexed": false,
          "internalType": "uint256",
          "name": "swapId",
          "type": "uint256"
        }
      ],
      "name": "SwapCreated",
      "type": "event"
    },
    {
      "anonymous": false,
      "inputs": [
        {
          "indexed": false,
          "internalType": "uint256",
          "name": "swapId",
          "type": "uint256"
        }
      ],
      "name": "SwapFinalized",
      "type": "event"
    },
    {
      "inputs": [],
      "name": "bondToken",
      "outputs": [
        {
          "internalType": "contract IERC20",
          "name": "",
          "type": "address"
        }
      ],
      "stateMutability": "view",
      "type": "function"
    },
    {
      "inputs": [],
      "name": "cashToken",
      "outputs": [
        {
          "internalType": "contract IERC20",
          "name": "",
          "type": "address"
        }
      ],
      "stateMutability": "view",
      "type": "function"
    },
    {
      "inputs": [],
      "name": "swapIndex",
      "outputs": [
        {
          "internalType": "uint256",
          "name": "",
          "type": "uint256"
        }
      ],
      "stateMutability": "view",
      "type": "function"
    },
    {
      "inputs": [
        {
          "internalType": "uint256",
          "name": "",
          "type": "uint256"
        }
      ],
      "name": "swaps",
      "outputs": [
        {
          "internalType": "address payable",
          "name": "recipient",
          "type": "address"
        },
        {
          "internalType": "address payable",
          "name": "sender",
          "type": "address"
        },
        {
          "internalType": "address payable",
          "name": "token2Sell",
          "type": "address"
        },
        {
          "internalType": "uint256",
          "name": "amount2Sell",
          "type": "uint256"
        },
        {
          "internalType": "uint256",
          "name": "amount2Buy",
          "type": "uint256"
        }
      ],
      "stateMutability": "view",
      "type": "function"
    },
    {
      "inputs": [
        {
          "internalType": "address",
          "name": "_token2Sell",
          "type": "address"
        },
        {
          "internalType": "uint256",
          "name": "_amount2Sell",
          "type": "uint256"
        },
        {
          "internalType": "uint256",
          "name": "_amount2Buy",
          "type": "uint256"
        }
      ],
      "name": "newSwap",
      "outputs": [
        {
          "internalType": "uint256",
          "name": "",
          "type": "uint256"
        }
      ],
      "stateMutability": "payable",
      "type": "function"
    },
    {
      "inputs": [
        {
          "internalType": "uint256",
          "name": "_swapId",
          "type": "uint256"
        }
      ],
      "name": "cancelSwap",
      "outputs": [
        {
          "internalType": "bool",
          "name": "",
          "type": "bool"
        }
      ],
      "stateMutability": "nonpayable",
      "type": "function"
    },
    {
      "inputs": [
        {
          "internalType": "uint256",
          "name": "_swapId",
          "type": "uint256"
        }
      ],
      "name": "finalizeSwap",
      "outputs": [
        {
          "internalType": "bool",
          "name": "",
          "type": "bool"
        }
      ],
      "stateMutability": "payable",
      "type": "function"
    },
    {
      "inputs": [],
      "name": "getSwapCount",
      "outputs": [
        {
          "internalType": "uint256",
          "name": "",
          "type": "uint256"
        }
      ],
      "stateMutability": "view",
      "type": "function"
    },
    {
      "inputs": [
        {
          "internalType": "uint256",
          "name": "_swapId",
          "type": "uint256"
        }
      ],
      "name": "getSwap",
      "outputs": [
        {
          "components": [
            {
              "internalType": "address payable",
              "name": "recipient",
              "type": "address"
            },
            {
              "internalType": "address payable",
              "name": "sender",
              "type": "address"
            },
            {
              "internalType": "address payable",
              "name": "token2Sell",
              "type": "address"
            },
            {
              "internalType": "uint256",
              "name": "amount2Sell",
              "type": "uint256"
            },
            {
              "internalType": "uint256",
              "name": "amount2Buy",
              "type": "uint256"
            }
          ],
          "internalType": "struct DvP.DvPSwapDef",
          "name": "",
          "type": "tuple"
        }
      ],
      "stateMutability": "view",
      "type": "function"
    }
  ],
  "bytecode": "0x608060405234801562000010575f80fd5b5060405162001a8038038062001a80833981810160405281019062000036919062000129565b815f806101000a81548173ffffffffffffffffffffffffffffffffffffffff021916908373ffffffffffffffffffffffffffffffffffffffff1602179055508060015f6101000a81548173ffffffffffffffffffffffffffffffffffffffff021916908373ffffffffffffffffffffffffffffffffffffffff1602179055505f60028190555050506200016e565b5f80fd5b5f73ffffffffffffffffffffffffffffffffffffffff82169050919050565b5f620000f382620000c8565b9050919050565b6200010581620000e7565b811462000110575f80fd5b50565b5f815190506200012381620000fa565b92915050565b5f8060408385031215620001425762000141620000c4565b5b5f620001518582860162000113565b9250506020620001648582860162000113565b9150509250929050565b611904806200017c5f395ff3fe608060405260043610610085575f3560e01c8063b3a6514711610058578063b3a651471461015b578063c28f439214610185578063d4227196146101af578063d81671bc146101df578063f09c58291461020957610085565b80634a0d89ba1461008957806354d6a2b7146100c5578063845a6f1714610101578063a722468714610131575b5f80fd5b348015610094575f80fd5b506100af60048036038101906100aa919061110c565b610249565b6040516100bc91906111eb565b60405180910390f35b3480156100d0575f80fd5b506100eb60048036038101906100e6919061110c565b610392565b6040516100f8919061121e565b60405180910390f35b61011b6004803603810190610116919061110c565b61069f565b604051610128919061121e565b60405180910390f35b34801561013c575f80fd5b50610145610b68565b6040516101529190611292565b60405180910390f35b348015610166575f80fd5b5061016f610b8d565b60405161017c91906112ba565b60405180910390f35b348015610190575f80fd5b50610199610b93565b6040516101a69190611292565b60405180910390f35b6101c960048036038101906101c4919061130e565b610bb6565b6040516101d691906112ba565b60405180910390f35b3480156101ea575f80fd5b506101f3610f66565b60405161020091906112ba565b60405180910390f35b348015610214575f80fd5b5061022f600480360381019061022a919061110c565b610f6f565b60405161024095949392919061136d565b60405180910390f35b610251611069565b610259611069565b60035f8481526020019081526020015f206040518060a00160405290815f82015f9054906101000a900473ffffffffffffffffffffffffffffffffffffffff1673ffffffffffffffffffffffffffffffffffffffff1673ffffffffffffffffffffffffffffffffffffffff168152602001600182015f9054906101000a900473ffffffffffffffffffffffffffffffffffffffff1673ffffffffffffffffffffffffffffffffffffffff1673ffffffffffffffffffffffffffffffffffffffff168152602001600282015f9054906101000a900473ffffffffffffffffffffffffffffffffffffffff1673ffffffffffffffffffffffffffffffffffffffff1673ffffffffffffffffffffffffffffffffffffffff16815260200160038201548152602001600482015481525050905080915050919050565b5f8161039d81610ffe565b6103dc576040517f08c379a00000000000000000000000000000000000000000000000000000000081526004016103d390611418565b60405180910390fd5b823373ffffffffffffffffffffffffffffffffffffffff1660035f8381526020019081526020015f206001015f9054906101000a900473ffffffffffffffffffffffffffffffffffffffff1673ffffffffffffffffffffffffffffffffffffffff161461047e576040517f08c379a0000000000000000000000000000000000000000000000000000000008152600401610475906114a6565b60405180910390fd5b5f73ffffffffffffffffffffffffffffffffffffffff1660035f8381526020019081526020015f205f015f9054906101000a900473ffffffffffffffffffffffffffffffffffffffff1673ffffffffffffffffffffffffffffffffffffffff161461051e576040517f08c379a00000000000000000000000000000000000000000000000000000000081526004016105159061150e565b60405180910390fd5b5f60035f8681526020019081526020015f209050806002015f9054906101000a900473ffffffffffffffffffffffffffffffffffffffff1673ffffffffffffffffffffffffffffffffffffffff1663a9059cbb826001015f9054906101000a900473ffffffffffffffffffffffffffffffffffffffff1683600301546040518363ffffffff1660e01b81526004016105b792919061154c565b6020604051808303815f875af11580156105d3573d5f803e3d5ffd5b505050506040513d601f19601f820116820180604052508101906105f7919061159d565b50806001015f9054906101000a900473ffffffffffffffffffffffffffffffffffffffff16815f015f6101000a81548173ffffffffffffffffffffffffffffffffffffffff021916908373ffffffffffffffffffffffffffffffffffffffff1602179055507fa257d9d6f612f40ec2b5b923498439d7875f09292420614ba87d9c32b2b1f9e68560405161068b91906112ba565b60405180910390a160019350505050919050565b5f816106aa81610ffe565b6106e9576040517f08c379a00000000000000000000000000000000000000000000000000000000081526004016106e090611418565b60405180910390fd5b825f73ffffffffffffffffffffffffffffffffffffffff1660035f8381526020019081526020015f205f015f9054906101000a900473ffffffffffffffffffffffffffffffffffffffff1673ffffffffffffffffffffffffffffffffffffffff161461078a576040517f08c379a00000000000000000000000000000000000000000000000000000000081526004016107819061150e565b60405180910390fd5b5f60035f8681526020019081526020015f2090505f805f9054906101000a900473ffffffffffffffffffffffffffffffffffffffff1673ffffffffffffffffffffffffffffffffffffffff16826002015f9054906101000a900473ffffffffffffffffffffffffffffffffffffffff1673ffffffffffffffffffffffffffffffffffffffff161461083a575f8054906101000a900473ffffffffffffffffffffffffffffffffffffffff1661085d565b60015f9054906101000a900473ffffffffffffffffffffffffffffffffffffffff165b905081600401548173ffffffffffffffffffffffffffffffffffffffff1663dd62ed3e33306040518363ffffffff1660e01b815260040161089f9291906115d7565b602060405180830381865afa1580156108ba573d5f803e3d5ffd5b505050506040513d601f19601f820116820180604052508101906108de9190611612565b101561091f576040517f08c379a000000000000000000000000000000000000000000000000000000000815260040161091690611687565b60405180910390fd5b8073ffffffffffffffffffffffffffffffffffffffff166323b872dd33846001015f9054906101000a900473ffffffffffffffffffffffffffffffffffffffff1685600401546040518463ffffffff1660e01b8152600401610983939291906116a5565b6020604051808303815f875af115801561099f573d5f803e3d5ffd5b505050506040513d601f19601f820116820180604052508101906109c3919061159d565b610a02576040517f08c379a00000000000000000000000000000000000000000000000000000000081526004016109f990611724565b60405180910390fd5b816002015f9054906101000a900473ffffffffffffffffffffffffffffffffffffffff1673ffffffffffffffffffffffffffffffffffffffff1663a9059cbb3384600301546040518363ffffffff1660e01b8152600401610a64929190611742565b6020604051808303815f875af1158015610a80573d5f803e3d5ffd5b505050506040513d601f19601f82011682018060405250810190610aa4919061159d565b610ae3576040517f08c379a0000000000000000000000000000000000000000000000000000000008152600401610ada90611724565b60405180910390fd5b33825f015f6101000a81548173ffffffffffffffffffffffffffffffffffffffff021916908373ffffffffffffffffffffffffffffffffffffffff1602179055507fbab960d994f7368226e3ee0b95f23ce69974b676b29731bda3bf7ae4fe76aeee86604051610b5391906112ba565b60405180910390a16001945050505050919050565b60015f9054906101000a900473ffffffffffffffffffffffffffffffffffffffff1681565b60025481565b5f8054906101000a900473ffffffffffffffffffffffffffffffffffffffff1681565b5f805f9054906101000a900473ffffffffffffffffffffffffffffffffffffffff1673ffffffffffffffffffffffffffffffffffffffff168473ffffffffffffffffffffffffffffffffffffffff161480610c5d575060015f9054906101000a900473ffffffffffffffffffffffffffffffffffffffff1673ffffffffffffffffffffffffffffffffffffffff168473ffffffffffffffffffffffffffffffffffffffff16145b610c9c576040517f08c379a0000000000000000000000000000000000000000000000000000000008152600401610c93906117b3565b60405180910390fd5b5f83118015610caa57505f82115b610ce9576040517f08c379a0000000000000000000000000000000000000000000000000000000008152600401610ce09061181b565b60405180910390fd5b8373ffffffffffffffffffffffffffffffffffffffff166323b872dd3330866040518463ffffffff1660e01b8152600401610d2693929190611839565b6020604051808303815f875af1158015610d42573d5f803e3d5ffd5b505050506040513d601f19601f82011682018060405250810190610d66919061159d565b610da5576040517f08c379a0000000000000000000000000000000000000000000000000000000008152600401610d9c90611724565b60405180910390fd5b600160025f828254610db7919061189b565b925050819055506040518060a001604052805f73ffffffffffffffffffffffffffffffffffffffff1681526020013373ffffffffffffffffffffffffffffffffffffffff1681526020018573ffffffffffffffffffffffffffffffffffffffff1681526020018481526020018381525060035f60025481526020019081526020015f205f820151815f015f6101000a81548173ffffffffffffffffffffffffffffffffffffffff021916908373ffffffffffffffffffffffffffffffffffffffff1602179055506020820151816001015f6101000a81548173ffffffffffffffffffffffffffffffffffffffff021916908373ffffffffffffffffffffffffffffffffffffffff1602179055506040820151816002015f6101000a81548173ffffffffffffffffffffffffffffffffffffffff021916908373ffffffffffffffffffffffffffffffffffffffff16021790555060608201518160030155608082015181600401559050507f82bd0758e34b8ab9f7b98c6934b9b2cdc27356438b9b1557930994ad0093ed04600254604051610f5291906112ba565b60405180910390a160025490509392505050565b5f600254905090565b6003602052805f5260405f205f91509050805f015f9054906101000a900473ffffffffffffffffffffffffffffffffffffffff1690806001015f9054906101000a900473ffffffffffffffffffffffffffffffffffffffff1690806002015f9054906101000a900473ffffffffffffffffffffffffffffffffffffffff16908060030154908060040154905085565b5f8073ffffffffffffffffffffffffffffffffffffffff1660035f8481526020019081526020015f206001015f9054906101000a900473ffffffffffffffffffffffffffffffffffffffff1673ffffffffffffffffffffffffffffffffffffffff1614159050919050565b6040518060a001604052805f73ffffffffffffffffffffffffffffffffffffffff1681526020015f73ffffffffffffffffffffffffffffffffffffffff1681526020015f73ffffffffffffffffffffffffffffffffffffffff1681526020015f81526020015f81525090565b5f80fd5b5f819050919050565b6110eb816110d9565b81146110f5575f80fd5b50565b5f81359050611106816110e2565b92915050565b5f60208284031215611121576111206110d5565b5b5f61112e848285016110f8565b91505092915050565b5f73ffffffffffffffffffffffffffffffffffffffff82169050919050565b5f61116082611137565b9050919050565b61117081611156565b82525050565b61117f816110d9565b82525050565b60a082015f8201516111995f850182611167565b5060208201516111ac6020850182611167565b5060408201516111bf6040850182611167565b5060608201516111d26060850182611176565b5060808201516111e56080850182611176565b50505050565b5f60a0820190506111fe5f830184611185565b92915050565b5f8115159050919050565b61121881611204565b82525050565b5f6020820190506112315f83018461120f565b92915050565b5f819050919050565b5f61125a61125561125084611137565b611237565b611137565b9050919050565b5f61126b82611240565b9050919050565b5f61127c82611261565b9050919050565b61128c81611272565b82525050565b5f6020820190506112a55f830184611283565b92915050565b6112b4816110d9565b82525050565b5f6020820190506112cd5f8301846112ab565b92915050565b5f6112dd82611137565b9050919050565b6112ed816112d3565b81146112f7575f80fd5b50565b5f81359050611308816112e4565b92915050565b5f805f60608486031215611325576113246110d5565b5b5f611332868287016112fa565b9350506020611343868287016110f8565b9250506040611354868287016110f8565b9150509250925092565b61136781611156565b82525050565b5f60a0820190506113805f83018861135e565b61138d602083018761135e565b61139a604083018661135e565b6113a760608301856112ab565b6113b460808301846112ab565b9695505050505050565b5f82825260208201905092915050565b7f636f6e747261637420646f6573206e6f742065786973740000000000000000005f82015250565b5f6114026017836113be565b915061140d826113ce565b602082019050919050565b5f6020820190508181035f83015261142f816113f6565b9050919050565b7f4f6e6c79207468652073656e646572206f66207468697320636f696e2063616e5f8201527f2063616e63656c20737761700000000000000000000000000000000000000000602082015250565b5f611490602c836113be565b915061149b82611436565b604082019050919050565b5f6020820190508181035f8301526114bd81611484565b9050919050565b7f416c72656164792066696e616c697a6564206f722063616e63656c65640000005f82015250565b5f6114f8601d836113be565b9150611503826114c4565b602082019050919050565b5f6020820190508181035f830152611525816114ec565b9050919050565b5f61153682611261565b9050919050565b6115468161152c565b82525050565b5f60408201905061155f5f83018561153d565b61156c60208301846112ab565b9392505050565b61157c81611204565b8114611586575f80fd5b50565b5f8151905061159781611573565b92915050565b5f602082840312156115b2576115b16110d5565b5b5f6115bf84828501611589565b91505092915050565b6115d1816112d3565b82525050565b5f6040820190506115ea5f8301856115c8565b6115f760208301846115c8565b9392505050565b5f8151905061160c816110e2565b92915050565b5f60208284031215611627576116266110d5565b5b5f611634848285016115fe565b91505092915050565b7f4e6f7420656e6f75676820616c6c6f77616e63650000000000000000000000005f82015250565b5f6116716014836113be565b915061167c8261163d565b602082019050919050565b5f6020820190508181035f83015261169e81611665565b9050919050565b5f6060820190506116b85f8301866115c8565b6116c5602083018561153d565b6116d260408301846112ab565b949350505050565b7f7472616e73666572206661696c656400000000000000000000000000000000005f82015250565b5f61170e600f836113be565b9150611719826116da565b602082019050919050565b5f6020820190508181035f83015261173b81611702565b9050919050565b5f6040820190506117555f8301856115c8565b61176260208301846112ab565b9392505050565b7f496e76616c696420746f6b656e206164647265737300000000000000000000005f82015250565b5f61179d6015836113be565b91506117a882611769565b602082019050919050565b5f6020820190508181035f8301526117ca81611791565b9050919050565b7f416d6d6f756e74206d75737420626520677265746572207468616e20300000005f82015250565b5f611805601d836113be565b9150611810826117d1565b602082019050919050565b5f6020820190508181035f830152611832816117f9565b9050919050565b5f60608201905061184c5f8301866115c8565b61185960208301856115c8565b61186660408301846112ab565b949350505050565b7f4e487b71000000000000000000000000000000000000000000000000000000005f52601160045260245ffd5b5f6118a5826110d9565b91506118b0836110d9565b92508282019050808211156118c8576118c761186e565b5b9291505056fea26469706673582212204347f23eb46ae463d40ca4f9cd7c7d6568631c2f55df106466f469c7c640645164736f6c63430008140033",
  "immutableReferences": {},
  "source": "// SPDX-License-Identifier: GPL-3.0\r\npragma solidity ^0.8.17;\r\n\r\nimport \"@openzeppelin/contracts/token/ERC20/ERC20.sol\";\r\n\r\ncontract DvP {\r\n    IERC20  public bondToken;\r\n    IERC20  public cashToken;\r\n\r\n    uint256 public swapIndex; \r\n\r\n    mapping(uint256 => DvPSwapDef) public swaps;\r\n\r\n    struct DvPSwapDef {\r\n        address payable recipient;  // User who recieved tokens (if none - address(0))\r\n        address payable sender;     // User who initialized the swap \r\n        address payable token2Sell; // Token offered by the sender\r\n        uint256 amount2Sell;        // The number of tokens to give away\r\n        uint256 amount2Buy;         // The number of tokens to receive\r\n    }\r\n\r\n    event SwapCreated(uint256 swapId);    \r\n    event SwapFinalized(uint256 swapId);\r\n    event SwapCanceled(uint256 swapId);\r\n\r\n    modifier existing(uint256 _swapId) {\r\n        require(isRegistered(_swapId), \"contract does not exist\");\r\n        _;\r\n    }    \r\n    modifier refundable(uint256 _swapId) {\r\n        require(swaps[_swapId].sender == msg.sender, \"Only the sender of this coin can cancel swap\");\r\n        require(swaps[_swapId].recipient == address(0), \"Already finalized or canceled\");\r\n        _;\r\n    }    \r\n    modifier claimable(uint256 _swapId) {\r\n        require(swaps[_swapId].recipient == address(0), \"Already finalized or canceled\");\r\n        _;\r\n    }    \r\n    constructor( address _tokenA, address _tokenB) {\r\n        bondToken  = IERC20(_tokenA);\r\n        cashToken  = IERC20(_tokenB);\r\n        swapIndex = 0;\r\n    }\r\n    function isRegistered(uint256 _swapId) internal view returns (bool registered){\r\n        registered = (swaps[_swapId].sender != address(0));\r\n    }    \r\n    function newSwap( address _token2Sell, uint256 _amount2Sell, uint256 _amount2Buy) public  payable returns(uint256) {\r\n        require(_token2Sell == address(bondToken) || _token2Sell == address(cashToken), \"Invalid token address\");\r\n        require(_amount2Sell > 0 && _amount2Buy > 0, \"Ammount must be greter than 0\");\r\n        // Securing tokens as a deposit to cover the transaction\r\n        if(!ERC20(_token2Sell).transferFrom(msg.sender, address(this), _amount2Sell)) revert(\"transfer failed\");\r\n        // Register the swap\r\n        swapIndex += 1;\r\n        swaps[swapIndex] = DvPSwapDef({\r\n            recipient : payable(address(0)),\r\n            sender : payable(msg.sender),\r\n            token2Sell : payable(_token2Sell),\r\n            amount2Sell : _amount2Sell,\r\n            amount2Buy : _amount2Buy\r\n        });\r\n        emit SwapCreated(swapIndex);\r\n        return swapIndex;      \r\n    }\r\n    function cancelSwap(uint256 _swapId) external existing(_swapId) refundable(_swapId) returns(bool) {  \r\n        DvPSwapDef storage s = swaps[_swapId];\r\n        // Tokens withdrawal from the deposit = closing the swap\r\n        !ERC20(s.token2Sell).transfer(s.sender, s.amount2Sell);\r\n        s.recipient = s.sender; \r\n        emit SwapCanceled(_swapId);\r\n        return true;\r\n    }\r\n    function finalizeSwap(uint256 _swapId) public payable existing(_swapId) claimable(_swapId) returns(bool){\r\n        DvPSwapDef storage s = swaps[_swapId];\r\n        IERC20 token2Buy = (s.token2Sell == address(bondToken)) ? cashToken : bondToken;\r\n        require(token2Buy.allowance(msg.sender, address(this)) >= s.amount2Buy, \"Not enough allowance\");\r\n        // Transfer the required number of tokens to the swap-creating party\r\n        if( !token2Buy.transferFrom(msg.sender, s.sender, s.amount2Buy)) revert(\"transfer failed\");\r\n        // Transfer token from a deposit from the sender to the counterparty\r\n        if( !ERC20(s.token2Sell).transfer(msg.sender, s.amount2Sell)) revert(\"transfer failed\");\r\n        s.recipient = payable(msg.sender);\r\n        emit SwapFinalized(_swapId);\r\n        return true;\r\n    }\r\n    function getSwapCount() public view returns (uint256){\r\nreturn swapIndex;\r\n    }\r\n    function getSwap(uint256 _swapId) public view returns (DvPSwapDef memory){\r\n        DvPSwapDef memory swapDetails;\r\n        swapDetails = swaps[_swapId];\r\n        return swapDetails;\r\n    }\r\n\r\n    }",
  "sourcePath": "/Users/marutipraturi/Downloads/dbf/contracts/contracts/dvp.sol",
  "compiler": {
    "name": "solc",
    "version": "0.8.20+commit.a1b79de6.Emscripten.clang"
  },
  "schemaVersion": "3.4.14",
  "updatedAt": "2023-10-03T13:50:17.360Z",
  "devdoc": {
    "kind": "dev",
    "methods": {},
    "version": 1
  },
  "userdoc": {
    "kind": "user",
    "methods": {},
    "version": 1
  }
}